:020000041000EA
:1000000000B5324B212058609868022188439860DF
:10001000D860186158612E4B002199600221596106
:100020000121F02299502B49196001219960352056
:1000300000F044F80222904214D00621196600F024
:1000400034F8196E01211966002018661A6600F04E
:100050002CF8196E196E196E052000F02FF8012189
:100060000842F9D1002199601B49196000215960AB
:100070001A491B48016001219960EB211966A021F2
:10008000196600F012F800219960164914480160C1
:100090000121996001BC002800D000471248134993
:1000A000086003C880F30888084703B5996A0420EC
:1000B0000142FBD001200142F8D103BD02B5186610
:1000C0001866FFF7F2FF186E186E02BD00000240BE
:1000D000000000180000070000035F00212200005C
:1000E000F4000018222000A00001001008ED00E03C
:1000F00000000000000000000000000074B24E7A12
:1001000000200420F7010010C3010010C5010010F9
:10011000C1010010C1010010C1010010C101001097
:10012000C1010010C1010010C1010010C701001081
:10013000C1010010C1010010C9010010CB01001065
:10014000CD010010CD010010CD010010CD01001037
:10015000CD010010CD010010CD010010CD01001027
:10016000CD010010CD010010CD010010CD01001017
:10017000CD010010CD010010CD010010CD01001007
:10018000CD010010CD010010CD010010CD010010F7
:10019000CD010010CD010010CD010010CD010010E7
:1001A000CD010010CD010010CD010010CD010010D7
:1001B000CD010010CD010010CD010010CD010010C7
:1001C00000BE00BE00BE00BE00BE00BE00F04BF888
:1001D000103800BEF2EB8871F85601101857011064
:1001E0003402001090A31AE700202149086006C8D5
:1001F00081F3088810471F48006800282FD10DA4FC
:100200000ECC002902D000F012F8F9E71A491B4A77
:10021000002000E001C19142FCD1194988471949E9
:1002200088471949884700BEFDE701C901C29A42C3
:10023000FBD3704718570110C0000020841E002017
:10024000DC7401100000042000000420DC740110A4
:1002500000100420001004200000000070470B482C
:1002600003F0B2FC0047EFF30580C0B27047000016
:1002700008ED00E0000000D0881E0020D42C0020F3
:100280003D200010A9030010652100105756000002
:1002900006005250ABB360531833011006005250A1
:1002A000861C030228330110060052505422A29DDE
:1002B0003C33011005005250DE65F468DC74011017
:1002C000F8B5C04606480749091A8B10C90FC91866
:1002D00010B5491003D0044B002B00D0984710BD37
:1002E000841E0020841E002000000000054B10B575
:1002F000002B03D00449054800E000BFFFF7E2FFF0
:1003000010BDC046000000005C2C0020202F011012
:10031000034B1A0008321A6000225A601A727047A2
:10032000C0210020F8B56A46436800AF5D1C083361
:10033000DB08DB00D31A9D460168684611F0B2FF66
:100340006946144804F05EFE134C0021200007F0BB
:100350008BFF124B2000197807F084FC104B200013
:10036000197807F07FFC0F4E01353178200007F037
:1003700079FCE9B2200007F075FC6946200008F01E
:10038000D7FB0021200008F08DF8BD4633780133FB
:100390003370F8BD202F0110902100202815002077
:1003A00030150020D22C0020F0B5DE4657464E46D0
:1003B0004546E0B58FB004F031FE534804F022FE0C
:1003C000524B07219B4606225846012308F082FA29
:1003D00058464F4907F072FD002803D14D4804F0FC
:1003E00011FEFEE758464C4908F096F900215846A0
:1003F00008F0A6F9494804F005FE494B494C009322
:100400000AAB98460D239A46474B484D08AF0193D7
:1004100001F0F8FA002955D0FA220023920003F0E7
:100420006FFC2B68C01A23688342F1D2009A04AB98
:10043000029343CA43C3127840461A70534603934B
:10044000002399464A4602AB5A7543460D3204A929
:100450003B6004F02DFB53467B604B4638007B75B8
:10046000FFF760FF3868404503D0B968013109F0F3
:1004700011F90299019804F0C5FD01F0C3FA0029B1
:100480002AD0FA220023920003F03AFC286011F0EF
:1004900091FCFA21C90003F0C9FBFA239B009C469A
:1004A000614421605846002108F04AF9029804ABE3
:1004B0009842ADD00499013109F0ECF801F0A2FAAC
:1004C0000029A9D1FA21890003F0D8FB2B68C01AB2
:1004D000236898429CD9A9E7FA21890003F0CEFB52
:1004E000D4E70898404503D0B968013109F0D2F843
:1004F000029804AB984203D00499013109F0CAF87C
:1005000009F0CCF8F4E7C046302F0110902100200C
:10051000C0CA89364C2F011031050010782F011008
:10052000902F01102C150020A02F01104C2C002022
:10053000F0B5DE4657464E464546E0B58DB000283C
:1005400006D10DB0F0BCBB46B246A946A046F0BDF0
:100550004A4E06AC300007F00BFB8246300007F035
:1005600007FB0490300007F003FB0590300007F014
:10057000FFFA08AB994606930023636023720133A8
:100580009B46039005E04246DA55002223686560E9
:100590005A55300007F028FA002818D0300007F02C
:1005A000E7FAC3B29846676823687D1C4B450CD0B8
:1005B000A2689542E7D95B460022009339000023E8
:1005C000200009F02BFE2368DDE70F22F1E7FF256D
:1005D000039B1D4063689D4243D15346284ADBB2CA
:1005E00012789A4201D0FF2B37D1FF21049B254876
:1005F000194004F007FDFF2153462348194004F039
:1006000001FDFF21059B2148194004F0FBFC290056
:100610001F4804F0F7FC06991E4804F0F3FC300074
:1006200008F008F81C4B0100180004F0EBFC300047
:1006300008F036F804F09CF902000B00174804F0AB
:10064000E1FC0A2004F04CFB0698484500D178E70D
:10065000A168013109F01EF873E7114804F0D2FCDB
:10066000F2E7104804F0CEFCEEE70698484503D0C8
:10067000A168013109F00EF809F010F8902100206E
:1006800030150020F42F01100C3001101C30011027
:100690002C30011040300110503001105C3001103E
:1006A000D82F0110AC2F0110D0231B061B688B4ADA
:1006B00099005258F0B5DE4693465A1E93413022B7
:1006C00057464E4645465B421A401300844AE0B501
:1006D000944683B063440193824B884608269A4629
:1006E0003500083DEA081300019908339B005C5867
:1006F000002C23D05B46002B2AD001230F279946DC
:1007000039002140274213D0534642469A584B465F
:10071000AB401A420CD1072208002A4092009040B8
:100720000200EB0870483C339B001A502800D84761
:1007300024090135002C01D0B542E1D30836282E1A
:10074000CED103B0F0BCBB46B246A946A046F0BD30
:100750000F2318002040234207D047460E3BAB40F2
:100760006049C959194200D18DE02309F11F002BBE
:10077000E4D00F22100018401A420FD00123454642
:100780008B40584A52591A4208D107220A40920017
:100790009040CB08544A3C339B009850230AB11F29
:1007A000002BCBD00F22100018401A420FD001238B
:1007B00045468B404B4A52591A4208D107220A40FB
:1007C00092009040CB08484A3C339B009850230B42
:1007D000711F002BB2D00F22100018401A4241D1D5
:1007E000230C311F002BA9D00F22100018401A42F1
:1007F00052D1230DF11E002BA0D00F221000184063
:100800001A425AD1230EB11E002B97D00F2210008E
:1008100018401A420FD0012345468B40314A5259A5
:100820001A4208D107220A4092009040CB082E4A73
:100830003C339B009850240F721E002C00D17DE7A2
:1008400001235146404693400958194200D075E7AC
:100850000721D3080A40920094403C33224A9B006F
:100860009C506BE7012345468B401E4A52591A4261
:10087000B6D107220A4092009040CB081A4A3C3376
:100880009B009850ACE707232B409B0098403C32DC
:10089000154B9200D05068E7012345468B40114A22
:1008A00052591A42A5D107220A4092009040CB0823
:1008B0000D4A3C339B0098509BE7012345468B40F3
:1008C000084A52591A429DD107220A40920090408C
:1008D000CB08054A3C339B00985093E7A0270020A3
:1008E00000410140842C002000400140094A10B51D
:1008F00094464024830063441A68C00062408034F8
:1009000014408022520113431C60034B9C466044F8
:10091000416010BD04C0014000400140D0231B06CF
:1009200030B505001C681048631E9C4184460720B2
:1009300030236442284023408000EC08814020009E
:100940000A4D3C3063448000A40041511B19002A29
:1009500004D0802292011343196030BDC02292015D
:1009600013431960F9E7C0460041014000400140CF
:10097000F0B51F00D02384461B061D68C6466B1EBB
:100980009D41254B160098466246C3080720302437
:1009900010401A00800081406D4220482C403C32BB
:1009A000444492009B0000B5E4181150002E13D06F
:1009B00080239B0123431960D0231B061C68184D1C
:1009C000A4002B59002B13D0002F20D02F51002E24
:1009D00018D180BCB846F0BDC0239B0123431960E9
:1009E000D0231B061C680E4DA4002B59002BEBD105
:1009F000002FECD000220D200A492F5100F046F9BB
:100A0000002EE6D001210D2000F0DEF8E1E70D20F8
:100A1000044900F02BFAD9E70041014000400140B1
:100A2000A0270020A90600100200C30807201040DC
:100A300080008140024A3C339B0099507047C04679
:100A4000004001400123D02283401206936293614B
:100A5000094A40219446830063441A68C0004A4012
:100A6000803111408022520113431960034B9C4690
:100A7000052360444360704704C0014000400140CA
:100A800070B5EFF3108C72B60D4D2B68002BFCD0B7
:100A9000BFF35F8F0724CB08C618C05C01230C404E
:100AA000A3401C000440034207D118433070BFF339
:100AB0005F8F2C608CF3108870BD100001F054FB28
:100AC0002C0100D0F8B54746CE46884680B5EFF3F6
:100AD000108C72B6214D2C68002CFCD0BFF35F8FB8
:100AE0009A422CD8D4080727055D0619012417401F
:100AF000BC402C421FD007210127894609E0D408B9
:100B0000055D06194C4639001440A1400C002942ED
:100B100011D001329342F2D201204042BFF35F8FE5
:100B200000220E4B1A608CF3108800280FDBC0BC2B
:100B3000B946B046F8BD254310003570EEE7BFF367
:100B40005F8F00232B608CF31088012040424346C6
:100B5000002BECD0089801F007FBC0462C0100D018
:100B6000024B18688007C00F7047C04600C006409F
:100B70000021044B044ABFF35F8F02C39342FAD1B2
:100B80007047C046000100D0800100D0044A1078B0
:100B9000431CDBB2172B00D9102313707047C046DB
:100BA0003115002010B5064B064C82B001000093B1
:100BB00018221F232000FFF785FF02B010BDC0469A
:100BC00068300110A827002001238340002904D0A9
:100BD000034A1360034A13607047034A1360FBE73C
:100BE00080E200E000E100E080E100E001238340DA
:100BF000014A13607047C04600E200E0084B103025
:100C00009B688000C358002B07D0064A00209B1A1F
:100C10002F229A424041C0B270470020FCE7C046F4
:100C200000ED00E034150020024B10309B6880007E
:100C3000C058704700ED00E070B50D00EFF310866E
:100C400072B60F4A1368002BFCD0BFF35F8F0D4BB9
:100C500010309B6884001B590B4A934203D09D427D
:100C600001D001F099FA074B9B681D51BFF35F8FCC
:100C7000BFF35F8F0022024B1A6086F3108870BDAD
:100C8000240100D000ED00E0CD010010F0B5574682
:100C90004E46DE464546E0B585B006000191170098
:100CA000EFF3108B72B6664A1368002BFCD0BFF3CB
:100CB0005F8F0025634B5D579A46002D00DAA3E055
:100CC0006B00614C02935B199B009846A146C1449E
:100CD0004B4652469B79103613705C4BB2009B68B2
:100CE000009299580B1B2F2B34D9594B994200D0A5
:100CF000A3E0029B42469C46564B6544AD006353BD
:100D0000554B0232A218043B9B1A1B05534A5B0D3C
:100D1000651913436B80524B0121AB80FF23AB71EC
:100D2000019BEF71AB604B460B431900474B009A98
:100D30009B689950BFF35F8FBFF35F8F0022404BDA
:100D40001A608BF3108805B0F0BCBB46B246A946CA
:100D5000A046F0BD01200A008243D379BB422FD8C0
:100D600045464E4613003F491B1B5B415943090D45
:100D7000384B6353384B02356519043B5B1B1B052D
:100D8000364D5B0D2B4373800426B446E044131F9D
:100D900044441B1B1B055B0D1D434B469971019978
:100DA0009D8099604946DF712F4B01431360BDE779
:100DB0005800C01880002018C679BE422AD9020007
:100DC0000623D356002BF3DA101D8246BD20000205
:100DD00003900426504676424E44361A3005400DA4
:100DE000844666461D48957106439680029A94464D
:100DF0006544AA00A4181C4AA3712260019B039AAF
:100E0000E771A280A36091E701F0C6F9002553467F
:100E10005D5755E7101D82469088400500158446B1
:100E20004046D444664604302018301AE0260005B7
:100E3000400D360230430390CBE701F0ADF958E79F
:100E4000240100D0CF2C00203415002000ED00E05C
:100E5000CD01001000A1FFFF6415002000E0FFFF9E
:100E600000BDFFFFAAAA000001488047F0B5DE469A
:100E700057464E464546E0B50C0083B0EFF3108A66
:100E800072B65A4A1368002BFCD0BFF35F8F102252
:100E9000914681444A46564B96009B689D59554B56
:100EA00098469D4205D0A54216D0534FEB1B2F2BE1
:100EB00014D94F4B9B689D51BFF35F8FBFF35F8F7A
:100EC00000224A4B1A608AF3108803B0F0BCBB467C
:100ED000B246A946A046F0BD1D00EAE701238340C3
:100EE0009B465A46454B1B681A4000925A46444B53
:100EF0001A60BFF35F8FFFF7B6F90190002803D0A7
:100F0000814501D001F048F901232A009A439368F2
:100F10009C4208D15FE04B005B189B00FB1899686E
:100F2000A14211D01A00062151560029F3DA009B84
:100F3000002B05D05A46334B1A60304B1A60B8E785
:100F40005A462F4B1A60B4E706215956002921DB77
:100F50004A00501880003C188046A0689860E079EC
:100F6000D871062020569871002824DBA488F81A2E
:100F70006405241544440019E0240005400D2402B2
:100F800020439880204B521818789200BA1890711C
:100F90001970CCE70199002910D1FF3191711B49DB
:100FA000918019490A789A71194ADB1B5B415A43AF
:100FB000120D0A70BBE7BD200002E2E7154A164990
:100FC000D21A083A5002400D014399801349520841
:100FD0000A43DA80ABE70621515613000029B7DA3D
:100FE000019A002AEAD14546DBE7C046240100D039
:100FF00000ED00E0CD0100103415002000E100E01C
:1010000080E100E080E200E0CF2C002000BDFFFF87
:10101000AAAA00006E15002000F0FFFF00F8FFFFF5
:10102000F8B5012504000543FFF71DF9EFF3108C17
:1010300072B6214A1368002BFCD0BFF35F8F1F4E9E
:101040002100B7681E4A1F4B891A49414B431B0DAB
:1010500059B28300F858A8421CD00623D3568B42BD
:101060001CD01223D3568B4222D01E23D3568B4240
:1010700020D02A23D35603208B4210D0124B1A784B
:101080001970A271BFF35F8F00220B4B1A608CF3B3
:101090001088F8BDB2680D48D050EFE7002043003B
:1010A0001B189B00D218FF239371094B9380E5E72F
:1010B0000120F4E70220F2E7240100D000ED00E077
:1010C00034150020AAAA0000CF2C0020CD0100106A
:1010D00000BDFFFF054B064A1360064A13605360CC
:1010E0009360D36013615361936170478080808007
:1010F00000E400E004E400E0D02200B51206084B52
:101100000100106883B01818064B002200930523D5
:10111000FFF7D8FC002801DB1F23181A03B000BD1D
:10112000C82C002084300110024B9C466144890089
:10113000016070474000003483680B4810B5844656
:10114000614462441201090159189B185C684A689D
:101150000120944201D802D00020C0B210BD1A680C
:101160000B689A42F9D8F7E7FFFFFF0F0A4B19689F
:10117000EFF3108072B60A68002AFCD0BFF35F8FCD
:101180001B68BFF35F8F00221A6080F3108840BF96
:10119000002000217047C046982C0020F8B5574623
:1011A00045464E46DE46E0B599460CAB1C780DAB85
:1011B0001B78070090469A460568002C44D1AC7B0A
:1011C000002C3BD0660029683619033E89194B78FC
:1011D000AB73002B00D1EB7300238B704B700B7043
:1011E0002E4BE218BB6812019B1842461A604A4611
:1011F0005A600A9A9A600B9ADA6000238B704B70DF
:101200000B706B7B9B46002B32D022005946A8689E
:101210006B68984700281DD05B46584629685B00DC
:101220005B448E19033BB070CA18CB5C002B00D016
:1012300073705B4614706B735C451AD0F0BCBB4690
:10124000B246A946A046F8BD660029683619033E95
:101250008919C5E75B465B002A685B44033BD318EA
:101260009C709119925D002A00D05A705B460B70F9
:101270006C7342464B46387D00F04EFC051E02D092
:101280005346002B04D00E9B002BD7D01D70D5E702
:101290002100386800F068FEF5E7C046FFFFFF0F49
:1012A000F0B5DE464E46574645460023E0B58DB0C4
:1012B0000A936B4B8200D3580B90994600239B46B0
:1012C0004B46079300F09EFB079C06000F006268E8
:1012D000EFF3108572B61368002BFCD02200079440
:1012E000BFF35F8F2468637B9946002B66D09268BA
:1012F0005C4B90464B441B01984443461A685B681C
:1013000010001900801BB94100295EDD0B9800F028
:1013100003FC00230026984600279A46079C636832
:10132000BFF35F8F5A461A6085F310885346002B2F
:1013300008D10028C6D10DB0F0BCBB46B246A946C4
:10134000A046F0BD0A9B414618024B461843D047C1
:10135000089009916268EFF3108572B61368002B4C
:10136000FCD00794BFF35F8F0899099A002A47DBE6
:10137000114303D0079B1B69002B5CD1079B1B68A3
:10138000D97B002906D01A684800411852184946EE
:10139000033A51704A46DA734B46079A013BD168CB
:1013A000CA5C0132CA545B46079A13615368BFF3A3
:1013B0005F8F5A461A6085F3108883E70023002662
:1013C000984600279A460020A8E7002901D1002866
:1013D0009CD10021200000F049FD43461E685F6853
:1013E0009B68079A9A464346DB689846D3684B4405
:1013F000013B1B780A931B020343136100208DE716
:101400002369002BBAD033003C005B1A94411A00C8
:101410002300A74219D89F421BD0594604910121AD
:101420000391494602914146019151460798009126
:10143000FFF7B4FEB7E700F0E5FA089A099B06004B
:101440000F0092197B419942E5D901225242D317EC
:10145000E3E79642E1D901225242D317DDE7C046C5
:10146000742C0020FFFFFF0FF8B557464E46454647
:10147000DE46E0B5404D81468A466A68EFF3108843
:1014800072B61368002BFCD0BFF35F8F2E68B47B5D
:10149000002C38D0670033683F19033FDB195A78B6
:1014A000B273002A00D1F273344AA118AA68090164
:1014B00052184946116051465160314991600021EE
:1014C000D160997059701970737B9B46002B36D090
:1014D00022005946B06873689847002821D05B46BF
:1014E000584631685B005B44CF19033BB870CA189B
:1014F000CB5C002B00D07B705B46147073735C4533
:101500001ED0002627E06B68BFF35F8F1C6088F356
:10151000108801204042F0BCBB46B246A946A04616
:10152000F8BD5B465B0032685B44033BD3189C709C
:10153000D119D25D002A00D05A705B460B707473CB
:101540004A465346287D00F0E7FA061ED9D021000E
:10155000286800F009FDEB681B19013B19786B68DE
:10156000BFF35F8F00221A6088F310880020002EDE
:10157000D1D108022043CEE77C150020FFFFFF0FEA
:101580006D11001010B5124C6368002B04D00A21B5
:101590001048FFF7C9FD10BD23000F4A1021206835
:1015A00000F07CFB032000F021FA032000F024FB74
:1015B00003200A4900F06AFAFFF7E8FA084B9C4654
:1015C000032360442375074B80006060DC60DEE726
:1015D0007C150020982C002039110010A112001059
:1015E00040000034742C0020004870477C15002017
:1015F000F0B54E465746DE464546E0B585B0019308
:1016000010AB1B780600039300239A46994600927C
:101610007268EFF3108B72B61368002BFCD0BFF327
:101620005F8F3568AC7B002C00D17FE067002B68B2
:101630003F19033FDB195A78AA73002A00D1EA73D5
:10164000524AA118B2680901521800980199106015
:1016500051600E9991600F99D1604A469A705A7004
:101660001A706B7B9846002B00D176E02200414631
:10167000A8686B689847002861D0434640462968AF
:101680005B004344CF19033BB870CA18CB5C002BF6
:1016900000D07B70434614706B7344455ED0F36892
:1016A0001B19013B18787368BFF35F8F4A461A60B5
:1016B0008BF310885346002B08D10002204305B05D
:1016C000F0BCBB46B246A946A046F0BD039B002B2A
:1016D0005AD00E9B00200F999847030004000D007C
:1016E0000B4351D000290DDA0098019902000B003C
:1016F000121BAB41994213D83DD000920193039B3A
:101700009A4685E700F07EF902000B00A4185D41BF
:1017100000940195A94203D8F1D100998A42EED9EB
:1017200001235B42DC1700930194E8E77368BFF381
:101730005F8F1C608BF3108801204042BFE7434657
:101740005B002A684344033BD3189C70D119D25DD7
:10175000002A00D05A7043460B706C73307D009A9B
:10176000019B00F0D9F98246002898D0210030680A
:1017700000F0FAFB93E700999142BED901235B4246
:10178000DC1700930194BAE7002098E7FFFFFF0FF2
:10179000F0B504000D0006267642F717C646361946
:1017A0006F4100B58F4213D810D000F02BF93200F2
:1017B0003B00121A8B41002B14DC002B37D0290080
:1017C000200000F053F980BCB846F0BD8642ECD949
:1017D0000026002700F016F932003B00121A8B4158
:1017E000002BEADD30003900FFF73EFE0028E6DB83
:1017F00000239846BC460F4A0F4F7B6A9C4504D88D
:10180000B96A8E42DBD99C45D9D11168EFF31080BB
:1018100072B60B68002BFCD0BFF35F8F1368BFF369
:101820005F8F4146196080F3108820BFE5E7002AEA
:10183000C5D0D7E7982C00200040054070B50600C1
:1018400000F0E0F8FA2204000D000023300000212F
:10185000920003F073F8001969418D4205D802D057
:10186000FFF796FF70BD8442FAD901204042C117AC
:10187000F6E7C046F8B5CE46474680B506000C00F0
:10188000FFF7F2FD031E11DC284A0020536A9C4238
:1018900003D8926A0130B24203D3C0BCB946B04605
:1018A000F8BDE31A5A1E9341D8B2F6E720BF204D87
:1018B0006968EFF3108872B60A68002AFCD0BFF39B
:1018C0005F8F2868D9B2427B8A4221D0FF22076805
:1018D0001A40B9465700BC464F4694446744033FFC
:1018E000BF78002F0FD0EF681B0ABA18013A1278A0
:1018F000DBB29A4216D06B68BFF35F8F00221A608A
:1019000088F31088C0E72A699342F4D12F61F2E787
:10191000FF22EF681A40BA18013A1B0A1278DBB2AC
:101920009A42E8D100F020FBE5E7C04600400540C0
:101930007C150020F0B5D6464F464646C0B5EFF3BD
:1019400005823F23134018001038EFF3108C72B655
:1019500020490A68002AFCD0BFF35F8F01221700DC
:1019600087401D4C1600A24667631C4C2578A04694
:101970002C00C4402640224209D1BFF35F8F0E6085
:101980008CF31088E0BCBA46B146A846F0BD52467A
:10199000566A134A8400A25896420ED34246114B0F
:1019A000BD43E3581570BFF35F8F00220A608CF3CC
:1019B0001088002BE6D09847E4E70B4A9B0090463E
:1019C00043441A681A60BFF35F8F00230B608CF3E7
:1019D0001088D7E7280100D000400540D32C002014
:1019E000A42C002090260020D03F054010B5034BCA
:1019F00001001800024AFFF743F810BDCE2C00206A
:101A0000A8300110034B596A0A00986A596A8A4241
:101A1000FAD170470040054070B504000D00124A2D
:101A2000536A1900966A536A8B42FAD13000190042
:101A300024184D41AB4211D80ED02B000A494A6AF6
:101A40009A42FCD307D1084A02E0516A994202D176
:101A5000916AA142F9D370BDA642EED901230124B7
:101A60006442E5175B42E9E700400540064A536AD5
:101A70009942FCD807D1044B02E05A6A914202D144
:101A80009A6A8242F9D370470040054070B504005D
:101A90000D00EFF3108672B61A4A1368002BFCD0C3
:101AA000BFF35F8F002D1BD02000FFF7BDF8164954
:101AB00081420AD02000FFF7BFF801212000FFF784
:101AC00083F80123A340114A1360114BA400E55091
:101AD000BFF35F8F00220B4B1A6086F3108870BD36
:101AE0000121A1400A4BA200D5500A4B20001A78D0
:101AF0008A4305491A70FFF7B9F900212000FFF762
:101B000063F8E5E7280100D035190010386005407A
:101B100090260020D32C0020F0B54F46D6464646EE
:101B2000C0B507002F4C616A0D00A66A616AA94220
:101B3000FAD18B4208D805D00120E0BCBA46B146A4
:101B4000A846F0BDB242F7D9EFF3108A72B6264824
:101B500001680029FCD0BFF35F8F0125BD402349F8
:101B6000204C8846097889462943C9B28C464146AB
:101B700060460870391D890065630A511C49B80028
:101B80004350216A0020294219D0616A0800A66AE0
:101B9000616A8142FAD18B4219D801D1B24216D87A
:101BA000CC451DD00F4B1F221D625D6301233A40BF
:101BB0009340104A0120136043464A461A70BFF30F
:101BC0005F8F0022084B1A608AF31088B5E7002067
:101BD000BFF35F8F0022044B1A608AF31088ACE7D2
:101BE0000120ECE700400540280100D0D32C002064
:101BF000A42C002080E200E0EFF3108C72B60A49BA
:101C00000B68002BFCD0BFF35F8F01238340074A92
:101C10000748136202789A430270BFF35F8F002374
:101C20000B608CF310887047280100D000400540FD
:101C3000D32C002070B5050014001600002915D023
:101C40000C00002A12D080686B6898472968002829
:101C50000ED073009B196200033B1219CB18033A94
:101C60009C7088188A5C002A15D10670200070BD0F
:101C700063001B197200033B9219CB18033A9E7044
:101C800088188A5C002A02D104703400EEE75A708A
:101C900004703400EAE75A700670E7E730B58360F5
:101CA0000023CCB243730133047342608373C47363
:101CB0000D000068012C06D9421C0133DBB2137001
:101CC00003329C42F9D1FF2129404B005B18C01818
:101CD00000230338437030BDF8B505000C1E07D053
:101CE000630001681B19033BCB185A78002A01D105
:101CF0002000F8BD500080180338091800204F78E4
:101D00004870210058702800FFF794FF3900060042
:101D10002800FFF7E1FF0400002EE9D0002826D0BC
:101D200031002200A8686B689847296800280FD006
:101D300063001B197200033B9219CB18033A9E7083
:101D400088188A5C002A00D05A7004703400CFE7EB
:101D500073009B196200033B1219CB18033A9C7065
:101D600088188A5C002A00D05A700670C0E73400D8
:101D7000BEE7C046F0B557464546DE464E46E0B59E
:101D80000D006B0001685B19DF1E0400C85D83B0A5
:101D90000192CA1900284CD043001B18033BCB18F2
:101DA0005E78B446002E16D1019E002E3ED0E67B12
:101DB000002E04D073009B19CB18033B5D70E573B4
:101DC00000282FD10023537003B0F0BCBB46B246AD
:101DD000A946A046F0BD72006244033A8A185178C1
:101DE0008846002151708946597032000100200058
:101DF000FFF720FF43468246002B07D05B00216897
:101E00004344033BCB185A78002A16D14246514628
:101E10002000FFF70FFF2168019BCA19002BC6D1D4
:101E20000028CFD043001B18033BCB18002199702A
:101E3000C8E7019B002BBAD1C4E7500080180338D3
:101E40000918487883464846487058704146200033
:101E5000FFF7F0FE594680462000FFF73DFF414660
:101E600002002000FFF7E6FE8046CFE7F0B55746B8
:101E70004546DE464E46E0B583B00191457B040001
:101E80006B0000685B19DF1EC15DC21900294ED0CE
:101E90004B005B18033BC3185E78B446002E18D184
:101EA000019E002E40D0E67B002E04D073009B19CB
:101EB000C318033B5D70E573002931D1002328006E
:101EC0005370617303B0F0BCBB46B246A946A0464E
:101ED000F0BD72006244033A8218507880460020B8
:101EE00050708146587032002000FFF7A3FE434631
:101EF0008246002B07D05B0021684344033BCB188C
:101F00005A78002A17D1424651462000FFF792FE28
:101F1000019B01002068C219002BC4D10029CDD03B
:101F20004B005B18033BC31800209870C6E7019B69
:101F3000002BB8D1C2E75000801803380918487840
:101F4000834648464870587041462000FFF772FEAD
:101F5000594680462000FFF7BFFE414602002000A0
:101F6000FFF768FE8046CEE770B5040000292CD04C
:101F7000437B8B422ED00568480040180338281850
:101F80008278002A21D053009B18033BEA5CEE18AC
:101F90008A4202D11BE0002A08D053009B18033B61
:101FA000EB185A788A42F6D142785A7000230122FF
:101FB000837043702000FFF7DDFE617B020020008C
:101FC000FFF738FE6073012000E0002070BD437809
:101FD0003370EBE701221900FFF7CCFE607301209C
:101FE000F4E7C04610B50400FEF7D0FD0100200064
:101FF000FFF79AF8FF232371BFF35F8F10BDC04630
:1020000010B50400FEF7C2FD01002000FFF78CF8B8
:10201000FF23A380BFF35F8F10BDC04610B504003F
:102020000120FEF7BFFD044B9C4660448000206009
:10203000BFF35F8F10BDC046400000342C4B2D4ACB
:1020400070B51A602C4A2D4B2D491A6014008B680C
:102050009C43FBD12B4D2C4EB54208D2013E761B42
:10206000B60808CD984723000134B342F9D100F0F7
:1020700099F8264A214B1A60214A9368DB43DB0119
:10208000DD09002BF9D14022214B224C224E9A67C8
:102090005A671A67DA66B44208D223682000002B18
:1020A00020D00834FFF7ACFFB442F6D31B4C1C4ED3
:1020B000C022B168200002F0FBFCB460FEF758FDBE
:1020C000FFF708F8FFF75EFA164C174EB44208D235
:1020D000013E361BB60808CC98472B0001359E42BE
:1020E000F9D170BD0834FFF77DFFB442D5D3DDE7E9
:1020F00000E00040BFCDFBFEFE7F3C0000F0004052
:1021000000C00040601E0020701E0020FFFFFF0185
:1021100000F00140581E0020601E0020000000203A
:1021200000ED00E0701E0020841E002000BEFDE7D0
:10213000094A03001068002805D00849C3188B42DB
:1021400007D81360704706480449C31810608B42D3
:10215000F7D901204042F5E748280020000004207C
:10216000D42C002000BEFDE70FB400B5084883B0B2
:1021700002F006FE049B002B07D005A91800019170
:1021800001F002FD034802F0FBFD00BEFDE7C04682
:10219000CC300110D037011010B50148FFF7E4FF33
:1021A000DC30011010B50C2082B000F0ADF9FEF764
:1021B000D7FC00280ED0854B854A1A605A609A6079
:1021C000DA601A615A619A61DA611A62814A5A6266
:1021D00002B010BD804CA06700F0ECF901227F4BEB
:1021E0001A60636C012BFCD103227D4B1A607A4A82
:1021F000936B012BFCD1013301217A4A7A48009379
:10220000043300F02DF90523784A00930121784822
:1022100000F026F9774B5A68FF2A02D88022520034
:102220005A6080226E4B694C12011A6021690029A4
:1022300005D0606901F022FD01300138FDD1E022B6
:102240006C4B6D4819680A400260022219685140BF
:1022500001320A40042102609A681142FCD08021B8
:10226000664A09011160802252005A60644B236162
:10227000644B5968FF2900D85A6003220121574B4B
:102280001A60604A93681942FCD0E023106803404A
:102290005D480360126803234A4002211340594AF3
:1022A000036093681942FCD08021584B09011960E2
:1022B0008021574B490051606361564B5A68FF2A91
:1022C00000D859608022544B12011A60E16900293C
:1022D00005D0606901F0D2FC01300138FDD1E02366
:1022E0004C4A11680B404D490B6080214C4B090151
:1022F00019608021364B49005160E361494B5A68AF
:10230000FF2A00D859608022474B12011A60216AC7
:10231000002905D0606901F0B1FC01300138FDD120
:10232000E023404A11680B4040490B608021404B3C
:102330000901196080235B0053608022244BD20284
:1023400023623C4B5968914200D25A6080223A4B3A
:1023500012011A60616A002905D0606901F08EFCE3
:1023600001300138FDD1E023324A11680B40334976
:102370000B608021324B090119608023DB0253601E
:10238000144B63622F4B5A68FF2A02D880225200F6
:102390005A6080222C4B12011A60A169002905D0D5
:1023A000606901F06BFC01300138FDD1E023254A62
:1023B00011680B4025490B608021254B09011960EC
:1023C00080235B005360124BA36101E7AC27002020
:1023D000006CDC021BB70000008000403CB00040F5
:1023E00030B00040002F685900800240008C8647C2
:1023F00000C00240308000403090004030A00040DB
:10240000001BB7003C8000403C9000403CA00040D6
:10241000405973075480004054B00040549000402D
:1024200054A000406080004060B0004060900040D8
:1024300060A000406C8000406CB000406C90004098
:102440006CA000404880004048B0004048900040E8
:1024500048A00040014B8000C0587047AC270020C6
:10246000F8B504000C2017001D000E0001F006FC5A
:1024700043011B1A9901C91AC900091889013800BA
:1024800001F0FCFB069B29041B0319432368002B66
:1024900020DB194B194DE3185A4253418022520157
:1024A00094461B03164A63441360164A13601F00C8
:1024B000AA689743FBD1C023221D9B01134321220D
:1024C0002660A0601A602268002AFCDA0822E16017
:1024D0001A60F8BD3F2322681340B342D9D1A368E4
:1024E0001B051B0D8342D4D1EE22E368D2021340B8
:1024F0008B42CED1EDE7C0460040FDBF00C000409A
:1025000000E0004000F000408023024A9B000343AB
:10251000D36270470080054010B5140080221C4B28
:10252000D2051A6000281AD001231A4A18431A4B00
:10253000DA611A4A42401A62596298628022144B48
:10254000D2051A601649174A1160E022D2041A60B7
:10255000002C07D18022144B12061A6010BD0E4BBE
:10256000D861EBE763011B1B9A008023121912014B
:102570005B049A4208D20D4B1A60074B5A608022C6
:10258000094BD2051A60E9E7084B094A1A60F4E7DB
:1025900000B00540D3C007B0008005402D3FF84F84
:1025A000FCFF01000820014000A00540542C002041
:1025B000FFFFFF00AA23064A1B0113602F230549D2
:1025C000D360054B19605368002BFCDA7047C04696
:1025D0000040024000B0FA00006002409A4200D27F
:1025E000885470477047C046F8B557464546DE46A2
:1025F0004E46E0B598460A9B06009A460D9B0F0092
:10260000934615009B0710D10B9B0C9A93420CD25A
:1026100013005C460B9A9D1A5D4422004346013428
:1026200039002020B047A542F7D10B9C6319002C3C
:1026300009D01D0053462A1B013C185D3900434652
:10264000B047002CF6D10D9B9B070ED55B46EC1ACC
:102650000C9BA34209D999462A0043463900202001
:102660000134B0470135A145F6D82800F0BCBB467F
:10267000B246A946A046F8BDF0B54F464646D646F6
:10268000C0B584B098460EAB1B78129F994694460D
:102690000D9C109B119EBA0725D4002E61D19C423F
:1026A00000D3C0E001223A4092461F2C00D9B9E085
:1026B0000C9A551E302201E0202C03D001342A55FB
:1026C000A342F9D85246002A0DD0A6420BD90C9A43
:1026D000551E3022202C02D155E0202C53D001343D
:1026E0002A55B442F9D1FA062DD57A0554D4002CD6
:1026F0004ED10F9B102B00D188E00F9B022B19D0DD
:1027000030230C9A012413704B46002B20D02D232C
:102710000C9A135501340C9B624600930397434671
:1027200002960194FFF760FF04B0E0BCBA46B146E0
:10273000A846F0BD01240C9A6033137030220C9B24
:102740001B191A700134202CE5D04B46002BDED12A
:102750007B0730D43B07DED520230C9A1355013478
:10276000D9E7012215003D40AA463A421CD04A460C
:10277000002A2BD10C323A4228D19C42A5D21F2CE0
:1027800096D9202E15D92024FA06C4D57A0503D46B
:10279000A3421DD0B4421BD00F9B102B23D0022B81
:1027A0000ED0202CB7D0C9E79C429CD21F2C00D859
:1027B0007EE7202497E72B230C9A13550134AAE7D0
:1027C000202CA8D00C9B1B19013438E0013ED4E723
:1027D000631E012C00D18CE70F9A102A25D0022A03
:1027E0002AD01C00AAE7BB0607D4202C93D00C9B50
:1027F0001A19013478231370D3E7202C00D18AE70B
:1028000058220C9B1B191A700134CAE7BB0604D46A
:1028100078230C9A0124137090E758230C9A012412
:1028200013708BE7202400265DE7023CBA06E7D44C
:102830000C9A12191C00DDE70C9A9246534462224E
:102840001A70AEE710B5002800D110BD02F048FAAA
:10285000FBE7C0460B0010B5002802D049681B6892
:10286000984710BDF0B5DE4657464E464546E0B5A2
:102870009BB09B46249B89469846259B0B900C92C7
:102880004046424619009A4601F0C9FC002800D093
:10289000D8E0012240465146774B524201F0BAFC43
:1028A000002800D0CEE0012240465146734B5242F0
:1028B00001F09AFC002800D0C4E00022002340462A
:1028C000514601F091FC002800D0B9E14246534640
:1028D0000A9209938023289ADB001A400E92289AC4
:1028E0001A4201D1062326930A9A099B1600134324
:1028F00000D0C7E0289B002500261B0500D49BE1E3
:1029000000230D93269A0D9B9A4200DC9FE1D31A77
:10291000013B26938023289ADB001A4300230027DB
:1029200028920D93279B0024BB4200D9DC1B022375
:10293000289A1A400E92289A134203D07B427B4178
:102940005B421C400D9B002B07D00A9809992A0076
:10295000330001F0E8FB0A90099100220023404671
:10296000514601F041FC002805D080200006844635
:10297000099961440991289A414B0B9D1340049396
:10298000269B0A9A0293099B03940092019349465D
:102990005B4628000C9A00F08BF90400002F62D0EF
:1029A000289B220098061F23C0179843631C984653
:1029B00049465B466530A8470D9A0025D317D418C1
:1029C0005C40D30F9A46013F01E0202D13D00AAAA4
:1029D00094461F23200063440A2101355E1901F04B
:1029E0004DF93031317020000A2101F047F92600FD
:1029F0000400092EE9D805230693002304930A3323
:102A00000393534605970B9F029312AB00934246E4
:102A10005B46494638000195FFF72EFE0E9B0400E9
:102A2000002B20D00C9BC51A279BAB421BD91E0044
:102A300022005B46494620200135B8470134AE42AA
:102A4000F6D810E0289B42460493279B49460393FF
:102A5000269B0B9802935346009201935B460C9A77
:102A600000F026F9040020001BB0F0BCBB46B246C3
:102A7000A946A046F0BDC046FFFFEF7FFFFFEFFF76
:102A8000FFF7FFFF734B099F9C467800400D6044A1
:102A900001F0D8FB704A714B01F063FB704A714B37
:102AA00001F038FB3B03704A1B0B1A4304000D0076
:102AB000300011006D4B002201F023FB6C4A6D4B7E
:102AC00001F04FFB02000B002000290001F022FB67
:102AD00001F0D0FB0D9001F0B5FB674A674B040095
:102AE0000D0001F03EFB0022654B01F013FB01F0ED
:102AF000C1FB644A0600644B2000290001F031FB51
:102B0000040030000D000F9601F09CFB5F4A604B03
:102B100001F027FB02000B002000290001F0F1FA70
:102B200002000B0006000F0001F01BFB3200040046
:102B30000D003B003000390001F0ECFA002210904B
:102B40001191544B2000290001F0EDFA0022524B64
:102B500001F0E0FA02000B002000290001F0E3FA86
:102B600000224E4B01F0D6FA02000B002000290093
:102B700001F0D9FA0D008021040032003B00002052
:102B8000C90501F0BEFA02000B002000290001F087
:102B9000C1FA02000B001098119901F0C4FA00224A
:102BA000314B01F0B7FA3E4B0F9C9C466444002227
:102BB000230501F0D6FA05000E0002000B000A986A
:102BC000099901F011FB00280AD00D9B2800013B58
:102BD00031000D930022304B01F0A5FA05000E00E4
:102BE000C6270D992B0063318F42BF4128997F4240
:102BF0000437090500D495E6334300D182E6099CE9
:102C0000284A2100284B0A9801F0FCFA002808D035
:102C100000222100254B0A9801F0E6FA002800D096
:102C200070E6269B002B00D17CE60E9B5A1E93413A
:102C3000269AD31A269375E6002304270D9371E68E
:102C400043460A9380231B065344099342E600231C
:102C500026935FE601FCFFFFFB799F501344D33FAF
:102C6000B3C8608B288AC63F0000F03F0000F83FE1
:102C700061436F63A787D23F71A379094F930A40DD
:102C80000000E03F1655B5BBB16B0240EF39FAFECC
:102C9000422EE63F00002C40000024400000184077
:102CA000FF0300002D431CEBE2361A3F80842E41C7
:102CB000F0B54E46DE4657464546E0B597B09946D4
:102CC000209E219F229B8346984607910C923B00B1
:102CD00032003000390001F0A2FA002800D0ADE146
:102CE000012230003900CC4B524201F07DFA00281D
:102CF00000D003E1012230003900C84B524201F0FC
:102D000089FA002800D0D9E0002230003900C44BF5
:102D100001F080FA002800D0BBE00022300039002A
:102D2000C04B01F061FA002800D0B2E0002200237D
:102D30003000390001F058FA002800D0D3E0002319
:102D40000D93249B5B0501D40623984608AB9C4653
:102D50001722002430234146624404E00134135515
:102D60000139202C01D00929F8D8884630003900D3
:102D700001F080FA4246AC4BD2009B181A685B689F
:102D800005000892099301F05DFA02000B00300083
:102D9000390001F0B6F9089A099B01F0E2F90A90AE
:102DA0000B9101F08BFA824601F048FA02000B0009
:102DB0000A980B9901F0A5F900229C4B0A900B91FF
:102DC00001F028FA002800D1E2E001239C46E24409
:102DD000504601F033FA02000B000898099901F0FF
:102DE00009FA002802D000239A4601354346002BF9
:102DF00000D18BE008AB17269C46089566445546E3
:102E000014E001235B4243440A2128009A4600F063
:102E100035FF013430313719397028000A2100F0AC
:102E20002DFF092D00D8D0E0D0460500202CE8D198
:102E30000EAB98460323249A1340012B00D0E8E000
:102E4000239A2023002A1DD00D9A002A00D0FDE0ED
:102E500024990C320A4215D0239A013A2392239ADC
:102E60009A4200D805E108AA94461721302261440D
:102E7000202B07D023980133CA54834200D1E9E0C4
:102E8000202BF7D1249A01930392239A434602926E
:102E90001EE0249B58460493239B009601970393BE
:102EA00043460C9A029307994B46FFF7DBFC17B099
:102EB000F0BCBB46B246A946A046F0BD249B5B07CA
:102EC0000ED403225A4B2499019203912399029123
:102ED000009358464B460C9A0799FFF785FBE6E7A7
:102EE0000422544BEFE73B0032000020002101F0A8
:102EF00008F9012306000F000D9322E7249B03939A
:102F0000239B0293042301934B4BE1E7280001F03C
:102F100099F902000B003000390001F0F2F8434B40
:102F2000002206000F0001F05FF90EAB9846002862
:102F30000AD10022300039003C4B01F06BF9002827
:102F400002D1EB0700D50135202C00D172E708AA89
:102F500094461723280063440A2101341E1900F007
:102F600065FE3031280031700A2100F05FFE051E39
:102F7000EAD10323249A1340012B6DD0202C48D092
:102F80000D9B002B14D02D224146631C0A5579E776
:102F900000220A980B99254B01F026F9002800D051
:102FA00024E75346002B30D101239C46E2441DE721
:102FB000249B5B0724D4249A2300120700D461E7E2
:102FC0002022414601330A555CE75746089D202CD4
:102FD00000D12DE7220030214046002F09D00132D8
:102FE000B154202A00D123E7831A013BE318002BB8
:102FF000F5D10EAB98462E234146541C8B54A3E7C3
:103000002B224146631C0A553CE7DB0700D4EDE662
:10301000CAE7202336E7C046FFFFEFFFFFFFEF7F41
:1030200065CDCD4165CDCDC1A03201100000E03F9E
:10303000F0300110E8300110F8300110249B0393A8
:10304000239B0293032301930C4B41E7239A013AFC
:10305000239217E7040091E7239B002B8ED00D9B52
:10306000002B08D10C2224992300114200D1F6E64E
:10307000F2E61C0082E72300EEE6C046F4300110C1
:10308000F0B5DE4657464E464546E0B5A1B01C00B9
:103090002A9B92460993B94AB94B81468B461A60DE
:1030A000002900D12BE120780027002800D12DE154
:1030B000B44B5E460893B44B0C9309E03A00534678
:1030C00031007D1CC8472F0001342078002871D0C2
:1030D0002528F3D110239B460C3B9846023B002247
:1030E0009C460134207825000300203BDBB2102BE6
:1030F00003D808999B00CB589F460300303B092B0F
:103100006BD9002398462A2800D18AE000230A932D
:103110002E2800D176E00300683BDBB2122B1CD8CE
:103120009A499B00CB589F46012301341A43D9E7A3
:10313000634601341A43D5E7434601341A43D1E7C5
:103140005B4601341A43CDE7082301341A43C9E72B
:1031500080235B0068781A43013567280AD8242841
:103160001DD90300253BDBB2422B18D80C999B00DC
:10317000CB589F460300693BDBB20F2B0FD80121D0
:10318000834C9940A4460C400B946446214200D0E5
:1031900002E20A2B00D1E1E0072B00D1B8E07B1C52
:1031A00098463A00534631006C1CC8472078474681
:1031B00000288DD1B3463C00BA4501D853465F1E66
:1031C00053463A0059460020C847200021B0F0BCC1
:1031D000BB46B246A946A046F0BD002301009800B8
:1031E000C018013540004018297803000800303825
:1031F000303B0928F3D99846002308000A932E286B
:1032000000D088E780236878DB001A430300303B56
:10321000691C092B00D807E12A2800D116E10D000E
:1032200079E7099B02CB8846002903DB6078099384
:10323000651C6BE702210A43414649428846607893
:103240000993651C62E768786C2800D123E280232B
:103250005B001A43013580E780239B0068781A439E
:1032600001357AE76878682800D11AE280230135B1
:103270001A4372E7462800D18BE10721099B04928B
:10328000424607338B43190003920A9A484602923A
:103290000CC90092019309913A0053463100FFF79F
:1032A00007FD6C1C070010E77B1C98463A0053464C
:1032B00031002520C84747466C1C06E7920700D41A
:1032C00031E2099B3A0001CB31009B46C0B2534624
:1032D000C84743467C1C4744012B00D8FBE2A84664
:1032E0004D4622005346013431002020A847BC42FD
:1032F000F7D1A9465B46454609936C1CE5E6254B8C
:10330000207899460027002800D0D1E6002453E712
:10331000099B190008C98846002B00D1A6E021218D
:103320000A43934610A98C461F220F216244099537
:103330008C4615000B9C02E0202C0CD0130060463C
:10334000184001003731092800D8073901342955C0
:103350001A090F2BF0D8099D0B9490E0099B02CB22
:1033600012930A9B8B46002B7AD10878022149429E
:1033700000281AD001315C4659440FE0813000101A
:10338000502C002000310110903101104431011007
:1033900041900000E52500108C4203D06378013491
:1033A000002BF9D15B46E31A0B9380231100DB005D
:1033B000194009911A4204D00A9B0B99994200D9ED
:1033C0000B930223190011400D91134200D18BE1A0
:1033D000002800D173E1099B002B00D142E10A9B38
:1033E0003A009C465B46BC44DB1B64469B464B460E
:1033F0000994A9461D0009E053463100571CA8470F
:103400005B46D85D002800D155E13A009442F3D1E3
:103410002B004D469946099F0D9B002B00D04EE195
:10342000129B6C1C099350E6002304009800C018FE
:103430000131400000190C78030020003038303B87
:103440000928F3D920000D000A9364E6099B023590
:1034500001CBC143C91708400A90099328785AE65E
:1034600008780028A1D00A9B591E83E7102110007C
:103470008843113108438346520500D452E75B4626
:103480000693082305930A9B3A00049310230393A1
:10349000002302930B9B3100019318AB0093484625
:1034A0005346FFF7E9F8434607006C1C09930CE606
:1034B000202301009943472904D180231B011A438B
:1034C00002239843452801D120231A430721099B51
:1034D0000492424607338B43190003920A9A4846E6
:1034E00002920CC90092019309913A0053463100AF
:1034F000FFF7B8F96C1C0700E7E5622800D1F6E198
:103500006F2800D132E1582800D1CFE010239A4330
:10351000063B0D93692800D024E10B92530546D554
:1035200001230B9A9A430B92692840D064283ED01D
:103530000B9A802311009B0019408B461A4200D041
:10354000DCE1802314005B001C401A4200D07BE2C7
:1035500013005B0600D48BE1FF22099B02CB1140D4
:103560008B4609935B46002B00D08CE10B9A1033FD
:10357000110099430B91520500D484E100240B9B68
:103580000693434605930A9B04930D9B03930023E4
:1035900061E120231A4370E610230D937828ACD103
:1035A0000C23110099430B915205B9D4BCE70B9A37
:1035B000802311009B0019408B461A4200D0D8E0AE
:1035C000802314005B001C401A4200D0E2E113008B
:1035D0005B0600D527E1130009991B0600D495E28C
:1035E00008C91BB2D8171A18424092B209919346E3
:1035F000DA0F1392002B09D1802310220B99DB00E4
:103600000B4091430B91002B00D01BE10B9A6123DF
:10361000920600D54123DBB210A90A3B1F228C463B
:10362000129343466244A84614970D9D5F46159336
:10363000B34616000AE03033DBB201343355AF42F3
:1036400000D24EE1202C00D14BE1070029003800C8
:1036500000F014FBCBB20929EDD9129A94466344C9
:10366000DBB2EAE75B46DB1B9B460B9B4C4699466D
:103670005346AA461D003A002B003100A0475B4686
:103680000137D85D0028F6D14B460B932B00A1469D
:1036900055469A46C0E6C0239B00A8781A430235D7
:1036A0005BE5C023A8781A43023556E520231A4368
:1036B000103B0D9374E72B004D469946ACE60B9BEF
:1036C000BB46984500D8ABE647445C46A8464D4605
:1036D000FF1A22005346013431002020A847BC4283
:1036E000F7D1A94645469BE60B9A531C904500D856
:1036F00022E24346DB199C1A4B46A9461D003A00BC
:103700005346013731002020A847A742F7D12B00AC
:103710004D469946434601330B935B461878002883
:1037200000D058E67CE64346012B00D802E27C1E1E
:103730004444A8464D463A00534601373100202004
:10374000A847A742F7D1A9464546099B220001CBCD
:1037500031009846C0B25346C8474346671C099398
:103760006C1CB2E4642800D1D7E619E708230D9356
:1037700016E70722099B07339343013294469C4482
:10378000624609920CCB9C46DB171093119310985C
:103790001199030053400E9364460B0063400F934E
:1037A0000E9B0F9C1B1A8C410E930F946346DB0FEC
:1037B000139300239B4663461A433BD00B9A612325
:1037C000920600D54123DBB20A3B1293434610A96F
:1037D0001F228C46002415934B466244B146149731
:1037E000169527000E9C0F9D90460D9E17930CE09A
:1037F0003032D2B243460137DA55AB4500D177E1DA
:10380000202F00D177E104000D00320000232000BA
:10381000290000F075FAD2B2092AE9D9129B9C4618
:103820006244D2B2E6E7FF22099908C913401A00A0
:103830000991DCE60B9A10231100994300240B91A7
:103840005205BBD50B9B0693434605930A9B0493F5
:103850000D9B0393139B029318AB3A0001940093C2
:10386000310053464846FEF707FF6C1C07002CE466
:1038700013001B0600D458E1099B04CB1204120C60
:10388000934609936EE60B9A6123920600D5412375
:1038900010A91F228C46DBB262440A3B1397149690
:1038A0005F461600AB4612930D9D08E03033DBB245
:1038B00001343355AF421DD3202C1BD00700290003
:1038C000380000F0DBF9CBB20929EFD9129A9446FF
:1038D0006344DBB2ECE75B46270009936C1CFFF7FF
:1038E000F4FB159B45465E469846149FAAE70223C3
:1038F0000D9355E65D46139F149E40E60722099BF3
:1039000007339343013294469C44624609921A68F5
:103910005B6810009B4613005A46134307D10B9A6D
:103920001033110099430B91520500D526E60B9AEE
:103930006123920600D54123DBB210A90A3B1F2266
:103940008C461293434662441397159500245D46B6
:103950000700B34690460D9E14930DE03032D2B26C
:10396000434601341A550023AB4200D1D4E0202C49
:1039700000D1D4E007000D003200002338002900F8
:1039800000F0BEF9D2B2092AE8D9129B9C466244E3
:10399000D2B2E5E7099B1A0008CA1592DA179C18FB
:1039A0005440DA0F1492002B08D1802310220B9977
:1039B000DB000B4091430B91002B2BD10B9A612321
:1039C000920600D5412310A91F228C46DBB2624427
:1039D0000A3B129713965F461600AB4609930D9D5E
:1039E00008E03033DBB20137F355AC420ED3202F61
:1039F0000CD004002900200000F040F9CBB20929C6
:103A0000EFD9099A94466344DBB2ECE75D46139E16
:103A1000BB46129F0B9B3A000693434605930A9BB5
:103A2000310004930D9B48460393149B6C1C029336
:103A30005B46019318AB00935346FEF71DFE159BA2
:103A400007000993FFF741FB099B10CB1493002C4F
:103A500008D18023DB0011001340102291430B9109
:103A6000002B2BD10B9A6123920600D5412310A97C
:103A70001F228C46DBB262440A3B129713965F46C4
:103A80001600AB4609930D9D08E03033DBB20137D9
:103A9000F355AC420ED3202F0CD004002900200097
:103AA00000F0ECF8CBB20929EFD9099A94466344A7
:103AB000DBB2ECE75D46139EBB46129F0B9B3A00C0
:103AC0000693434605930A9B310004930D9B484699
:103AD0000393002302935B46019318AB0093534674
:103AE000FEF7CAFD149B070009936C1CFFF7EDFA63
:103AF000A64200D884E6159B0E940F959846179B16
:103B00003C004E46169D9946149F9BE608C9D8175F
:103B10001A18424009916AE5BE4200D827E7149B73
:103B20005E469846139F159D29E5099B04CB934655
:103B3000099317E53C0008E60B93F0E50EB401226B
:103B400030B584B007AC08CC064D010000942800C5
:103B500052420394FFF794FA04B030BC08BC03B09F
:103B60001847C046DD25001000B585B0039101213E
:103B700002900093034813004A4202A9FFF780FA1B
:103B800005B000BD5528001010B5094A030014689F
:103B900084B0002C08D0012200910648524203A9AB
:103BA000A047012004B010BD01F0EAF80020F9E7B9
:103BB000502C00204528001001480421014B1847D3
:103BC000B0150020E93B0010142310B5010018883F
:103BD00004331B88984710BD162310B501001888C0
:103BE00002331B88984710BDF8B54746CE4680B5CE
:103BF0000F1E19D014239946043304000025012612
:103C000098464B461888434621681B88984701C44C
:103C1000431E9841013540420640AF42F1D1300089
:103C2000C0BCB946B046F8BD0126F8E7124A936F0A
:103C30009B0815D29066D166002905D0FFE7FFE703
:103C4000FFE7516F106F704704B580210906C21756
:103C50005140002800D0C8430FF0F2F8002104BD05
:103C6000F0B5146E556E576F166FFFF7E3FF1466CD
:103C7000556657671667F0BD000000D0114A936F74
:103C80009B0813D210665166002905D0FFE7FFE7B5
:103C9000FFE7516F106F704704B5002801D0002076
:103CA000C0430FF0CDF8002104BDC046F0B5146E3E
:103CB000556E576F166FFFF7E5FF14665566576729
:103CC0001667F0BD000000D094464E4A926F9208ED
:103CD000624601D230E0C046F0B54A4EB56F6D087D
:103CE000FCD3346E756E776F366F00F025F894460E
:103CF000444A14665566576716676246F0BDC0466B
:103D00009446404A926F9208624601D258E0C046FB
:103D1000F0B53C4EB56F6D08FCD3346E756E776FA1
:103D2000366F00F04DF89446364A1466556657676C
:103D300016676246F0BDC046002B24DB11D0002977
:103D40003EDA00B5C943404200D1013100F038F8F5
:103D5000C943404200D10131DB43524200D101331B
:103D600000BD002AEBD1002801D1002905D0002098
:103D7000C90FC90701D1C043410800B50FF028F8A9
:103D80000022002300BD00B500290ADBDB435242BC
:103D900000D1013300F014F8C943404200D1013191
:103DA00000BDC943404200D10131DB43524200D142
:103DB000013300F005F8DB43524200D1013300BD6E
:103DC000002923D1002B18D1002A0CD0BC460D4F5E
:103DD00038667A6600210023FFE7FFE7FFE77A6F86
:103DE000386F67467047002801D00748010000B5CA
:103DF0000EF0EEFF0022002300BD02000B000020A9
:103E000000217047000000D0FFFFFFFF002B00D013
:103E1000BFE0130C28D1002AE7D080B4114F3966D7
:103E20007A66FFE7FFE730B4040C7B6F396F1B0441
:103E300023433B667A66FFE7FFE7FFE7C04684B2AD
:103E40007B6F3D6F1B0423433B667A66FFE7FFE70A
:103E5000C04600232C042D0C7A6F386F001969417D
:103E6000B0BC7047000000D0F0B594460025140E99
:103E700001D112020835140F01D112010435940F3B
:103E800001D192000235D40F01D152000135D40B7B
:103E90000134254F7C66254C3C660E0C93B2FFE73F
:103EA000FFE7FFE73C6F6643360C7703BE4673437C
:103EB000DF0B5B04C01AB941130C7343DB18C91A3A
:103EC000CE086643360CB64493B273431F0F1B01F2
:103ED000C01AB941130C73431F0B1B05C01AB9411B
:103EE000860D8F023E436643360C092D24DB520AB1
:103EF0007243801A7703460A6643360C16235B1B0F
:103F0000DE40DF40BF1964466643821B70460435BD
:103F100006330100D940A840C01900D30131A242A4
:103F200006D20023F0BD0000000000D0FFFFFFFF1D
:103F3000121B0130F3D3F1E709277F1BFE406446D3
:103F4000A2B27243801A00D20139220C7243130CC0
:103F50001204821A99410B00704604351337010090
:103F6000F940A840801900D30131002B02D1A242B0
:103F70000AD2F0BD013000D30131121BFAD2013B4D
:103F8000F8D1A24200D2F0BD013000D30131121BA2
:103F9000F7E7F0B51C0C00D080E00CB400251C0A3B
:103FA00004D11B02160E3343120208351C0B04D138
:103FB0001B01160F3343120104359C0B04D19B00E7
:103FC000960F334392000235DC0B02D192185B410D
:103FD00001351C00971864410134464F7C66464CFD
:103FE0003C660E0CFFE7FFE7FFE7C0463C6F664309
:103FF000360C7703BE4697B27743C01B00D2013917
:10400000C01B00D201399FB27743C91BC91B170CD3
:1040100077437E04FF0B801BB941CE086643360C04
:104020000C2D33DBB644120B1F053A431B0B97B222
:104030007743C01B00D201399FB27743C91B170CCD
:1040400077433E043F0C801BB941860D8F023E43EF
:10405000664329277F1BFE400C3D7746AF40BF19C2
:1040600030BCA2B2ABB272437343801A9941220CA6
:104070007243130C1204801A994102000B0001379D
:10408000001BA941F9D2781E0021F0BD0C277F1B2F
:10409000FE4077467F0BAF40FF19E0E700245D1C30
:1040A00007D0144F7D663966FFE7FFE7FFE7FFE7BC
:1040B0003C6F95B29EB265436643401BB141150CFF
:1040C0001E0C6543664336042F0C3E432D04401BF3
:1040D000B141994204D202000B0020000021F0BD42
:1040E00001D19042F7D3801A994101349942F2D319
:1040F000F6E70000000000D0FFFFFFFF484041400E
:10410000484018B41B4B5B68FC46019308BD04DFB4
:10411000B343001018B4174B1B68FC46019308BD4D
:1041200000DFBD4300109446134A926F920809D2F3
:10413000624618B40F4BDB68FC46019308BD0CDFE8
:10414000754600100C4AF0B5146E556E576F166F19
:104150006246FFF7EEFF084A146655665767166712
:10416000F0BD18B4034B9B68FC46019308BD08DF03
:1041700019450010901F0020000000D0FFB55040EE
:104180004240504059404B40594000E0FFB5154F68
:104190004C00640D03D0BC4204D10C0314D80020A1
:1041A000090D09055C00640D03D0BC4204D11C0359
:1041B0000AD800221B0D1B0501264B4009D44B4099
:1041C00003D58B4200D18242FFBD9942FCD190427F
:1041D000FFBD0B43DB1803431343F5D0C943491814
:1041E000FFBD0000FF07000000B5FFF7CFFF8041D3
:1041F00000BDC04600B5FFF7C9FF01D9002000BDD2
:10420000012000BD00B5FFF7B9FF01D9002000BDB6
:10421000012000BD00B5FFF7B1FF804100BD0120C6
:1042200040054A00121804D85A00121801D800207C
:1042300070470120704700207047000000210028CF
:1042400005D17047C1174840401AFAD0C90713B5C5
:10425000064B1B6898470CBC441CA2401005120B6F
:104260000349091B09051943114310BD942C002073
:104270001F04000010B54C00620D8023D218DB0033
:10428000D21A5B057E2A10DD9E3A13DACC17090399
:10429000490819435242D140640001341532202AA2
:1042A00005DAD0400843604310BD002010BD084629
:1042B000604310BDC80FC018013810BD18B4044BBE
:1042C0005B6AFC46019308BD24DF2548001000000E
:1042D000901F002018B4044BDB6FFC46019308BD0F
:1042E0007CDFA54800100000901F0020132370B54C
:1042F0001D78012D15D010DD1C48FFF76DFC1C4CFE
:1043000001008022200000F0D3FB022D06D01948C6
:10431000FFF75AFC184B186070BD154C174BA3647F
:10432000F5E7164B124C23606360A360E3602361E2
:104330006361A361E36123626362A362E362236357
:104340006363A363E36323646364A364E364236537
:104350006365A365E36523666366A366E366236717
:104360006367A367E367A364D1E7C04653440000D3
:10437000901F00204C330000942C0020814300103B
:1043800007B5604601880A0A0230DF2AFAD1C9B2AD
:10439000820804D3028840880004104300E00068CB
:1043A000014A5050039007BD901F00200FB403BC7A
:1043B0000CBCF0B50124E407634000E0F0B50C0D3F
:1043C000CF0F661E3605891B640503D3C9434042DF
:1043D00000D30131640D03D0661CF60A07D0E41B3C
:1043E00000207F00791C89078912803C24031D0D61
:1043F000DF0F6E1E36059B1B6D0503D3DB43524258
:1044000000D301336D0D03D06E1CF60A07D0ED1BEF
:1044100000227F007B1C9B079B12803D2D032F1BDE
:10442000661B58D4A446202E46DA20371400BC4020
:104430001D00BD40F24033412A4380185941CB0F43
:1044400005D0C943C04300226442504151416246F5
:104450004D0D28D10D0D07D100281FD02419404142
:104460004941013A0D0DF9D0640006D3013000D363
:104470000131002C01D140084000013A0BD4941CBA
:10448000E40A04D112051144DB071944F0BDD90731
:10449000204B194300E0D9070020F0BD0029DDD1F1
:1044A000002CDBD1F0BD0132C6074008CD07284300
:1044B0004908002EE1D0D9E73C2E29DA203E4037CA
:1044C0001400BC4000D00124F24014431A00BB4049
:1044D0001C43D317ACE7AC46202F08DA2036040083
:1044E000B4400D00B540F84039412843A5E73C2FC2
:1044F0000CDA203F40360400B44000D00124F840DC
:1045000004430800B1400C43C117EAE7100019004A
:10451000002494E70000F07FF0B50C0D661E360510
:10452000891BE60A6405640D02D0651CED0A04D0FF
:10453000002001210905803C2403A4461C0D671EB0
:104540003F05DB1BE70A6405640D02D0651CED0A1C
:1045500004D0002201231B05803C240377406444DF
:1045600097B484B296B27443070C7E43150C6F4324
:1045700080B26843361802D3012000043F1830048B
:10458000350C00197D41844688B29AB250430C0C18
:1045900062431F0C7C438EB27E43921902D30126E4
:1045A0003604A4191604170C3618674101BC81B2F1
:1045B0009AB25143040C62431B0C5C4380B25843D3
:1045C000121802D30120000424181004130C401800
:1045D00063412D185E410020474106BC88B293B26A
:1045E00058430C0C6343120C544389B251435B187B
:1045F00002D301210904641819041A0C0918624134
:104600006D1856410020474118BCF902720D114344
:10461000F0026A0D1043ED020A0D03D16D194041FD
:104620004941013B124E9B1B7600B3420ED26D00F6
:1046300007D30130002671416646354301D1400859
:1046400040001B05C918E4072144F0BD0BDA013313
:1046500006D1013004D101314F0D01D04908F2E7F4
:10466000E1070020F0BD013631050020EBE7000036
:10467000FF030000F0B51C0D671E3F05DB1BE70ABA
:104680006405640D02D0661CF60A04D000220123E2
:104690001B05803C2403D0252D060026F6432E66FC
:1046A0001E096E66CE0FF619B44649004F0D02D0B2
:1046B0007E1CF60A03D000200021403F3F033E1B32
:1046C000B600B444013F7F05C91B49082E6F01366F
:1046D00076089C02950D25437543ED137543AD1384
:1046E00001356D10F603761B0CB4CC02450D2C433E
:1046F000A2B2B3B25A43270C7B43350C6F43A4B22A
:104700006C431B1902D3012424043F191C041D0C03
:10471000A4187D4124196D41009A91B2ACB2614355
:10472000170C7C432B0C5F4392B25A43A41802D35C
:1047300001221204BF182204230C52187B41019C51
:104740006C431B19520ED9010A434401A01A81B2CD
:10475000B2B2514303145A43360C734387B27743C2
:10476000D617D21900277E4136049B191704160C60
:104770007F185E417316ED18F301002680337541F2
:10478000A90F06D16400690AE8055B0A184309D23B
:104790002FE00422944480337541A90AA8059B0A9E
:1047A000184326D3404149412404009A019B0D003F
:1047B0005543641B4343E41A95B286B27543170C04
:1047C0007E43030C5F4392B25A43B61802D30122D0
:1047D0001204BF183204330C52197B4152429C41DF
:1047E000002C02D40022013051414008CA07104376
:1047F000490802B06246D7079210084BD218084BFE
:104800009A4203D212058918C919F0BD0020002A66
:1048100001DC3900F0BD01331905F5E7FD030000A7
:10482000FE070000002200B5203200F004F8080066
:1048300000BD000000220B150AD410B5944600F00C
:104840005FF81414013400DA0021CB17144C204710
:104850000020002170476244343A0CD40C2A07DA55
:1048600004009140904052422032D440214310BD78
:10487000D843D94310BD203207D40C46944052424D
:1048800020321141D040204310BD0800C91720320A
:1048900003D452422032104110BD1800190010BD3F
:1048A000574800104A00520D144BD21A13DDFF2A4C
:1048B0001EDAD205CB0FDB071A43C300400F0903F2
:1048C000490A084310435B0001D301D0013070470F
:1048D0004308FBD2704702D0C80FC00770470A03D5
:1048E00012130132F8D1420F072AF5D1012200E05C
:1048F000FF22C80F00028018C00570478003000027
:104900000A0DCC0F531E1B05C91A520503D3C94308
:10491000404200D30131520D03D0531CDB0A07D0B3
:10492000121B00206400611C89078912803A12035F
:10493000014BD21A70470000FF030000514343436C
:10494000C9188C46110C83B24B4310B4040C61435C
:1049500092B280B2504362431C041B0C001910BC7D
:1049600059411304120CC0185141614470470000B2
:10497000034BDB6FFC4618477CDF154A0010000034
:1049800090200020132310B512481C78FFF724F95B
:104990000100012C0AD003DD80220F4800F088F8C6
:1049A0000E48FFF711F90E4B186010BD0A4C542247
:1049B000200000F07DF80B4B6365A365E36523667B
:1049C0006366A366E36623676367A367E36723629F
:1049D000E361E5E753460000902000204C330000DF
:1049E000942C0020E949001007B5604601880A0AA6
:1049F0000230DF2AFAD1C9B2820804D30288408883
:104A00000004104300E00068014A5050039007BDC5
:104A100090200020C30FDB0741000A0E07D0FF2AB9
:104A200008D00909054A8918194340077047190039
:104A3000002070470249C918FAE70000000000385A
:104A40000000F07F10B504000CF0BAFE002804D07E
:104A5000034B04199C4200D810BD0248FDF784FBAB
:104A600000000420F032011010B50C000DF0BCF96C
:104A7000002804D0034B04199C4200D810BD024802
:104A8000FDF772FB00000420F032011010B50CF0AD
:104A9000A1FE10BD01480421014B1847C01500209C
:104AA000E93B0010014B1B6818470000C0150020AF
:104AB000014B5B6818470000C0150020030010B5CB
:104AC000080011001B68984710BDC046F0B5464667
:104AD0004F46D646C0B5437C80460E001700002BDB
:104AE00046D0002A3FDD4B1E9946244B0125002469
:104AF00000209A460DE04B461B5D0D3B5A42534148
:104B0000325DDBB20A2A0BD02B00013401359F4203
:104B10001ADD002CEFD14346325D1B7C0A2AF3D10B
:104B2000002BF1D1A04204DA4346211A1B68301849
:104B30009847434650461B68022198470134280095
:104B40002B0001359F42E4DC874204DD4346391ADD
:104B50001B6830189847F619013E33780D3B5A42CE
:104B6000534142461374E0BCBA46B146A846F0BD74
:104B70000368110030009847F5E7C0466C33011018
:104B8000F0B5C6460B6806000C0000B5802B06D0B9
:104B90005A1C2260E418267180BCB846F0BD0F4B49
:104BA0001D68002D16D00B1D98460D4F02E0ED68D4
:104BB000002D0FD02B68002BF9D03B68002B01D0C3
:104BC000AB42F4D1280041462268FFF77FFFED6831
:104BD000002DEFD101220023DBE7C0463C28002056
:104BE00044280020F0B557464E464546DE461C0098
:104BF000D023E0B51B061F68344B83B006000D00C0
:104C0000180001A991469A460EF02AF9804600281C
:104C100008D1019B7FB29F4204D050460EF068F944
:104C2000012398466B1C03D130000DF043FB0500B7
:104C3000002C27D1264F274B1C68002C18D04B4640
:104C4000002B21D1244B994602E0E468002C0FD0C0
:104C50002368002BF9D04B461B68002B01D0A342E0
:104C6000F3D120002A003100B847E468002CEFD1CE
:104C70004346002B25D103B0F0BCBB46B246A94643
:104C8000A046F0BD154FD6E7134B99460A239B4625
:104C900002E0E468002CEBD02368002BF9D04B46EF
:104CA0001B68002B01D0A342F3D12A003100200061
:104CB000B8475A466B4620001A7101A90122B8472D
:104CC000E7E750460EF07CF8D5E7C046581E0020B6
:104CD000CD4A00103C28002044280020BD4A001086
:104CE000F0B5CE46474680B583B06B46DE1CD02378
:104CF00030701B061C681F4B804601A9180099469E
:104D00000EF0AEF8071E20D01B4B1C68002C28D0DC
:104D10001A4D02E0E468002C0FD02368002BF9D074
:104D20002B68002B01D0A342F4D1200001223100D6
:104D3000FFF7CCFEE468002CEFD1002F11D14046E4
:104D400003B0C0BCB946B046F0BD019B64B29C4202
:104D50000BD048460EF0CCF8074B01271C68002CFE
:104D6000D6D148460EF02CF8E9E7034B1C68002C1E
:104D7000CED1E4E7581E00203C2800204428002023
:104D800070B504000DF096FA002301000500012221
:104D90002000FFF727FF084B1C68002C06D0636833
:104DA000002B05D09847E468002CF8D1280070BD8E
:104DB000E468002CF3D1F9E73C280020F8B5574609
:104DC0004E46DE464546E0B50E00170000282CD1C1
:104DD0001B4B1C4D1A685B6893469A461A4B9946C2
:104DE0001A4B98464B461C68002C03D115E0E4682A
:104DF000002C12D02B68002B01D0A342F7D1A3685E
:104E0000002BF4D03900300098470028EFDDF0BCCB
:104E1000BB46B246A946A046F8BD43465B6A9A45E2
:104E200008D84246926A5A4502D301204042EEE732
:104E30009A45FAD101200021FCF7EEFDD2E7C046E9
:104E4000A0300110442800203C28002000400540EC
:104E5000F0B54F46D6464646C0B501380D0017009E
:104E600082B0012842D8D0231B061C68214B01A91F
:104E700018009A460DF0F4FF8146002808D1019BE6
:104E800064B29C4204D050460EF032F80123994699
:104E9000B8467B1C03D128000DF00CFA8046164B57
:104EA0001C68002C14D0154E02E0E468002C0FD0D2
:104EB0002368002BF9D03368002B01D0A342F4D132
:104EC000200042462900FFF701FEE468002CEFD1E4
:104ED0004B46002B06D1380002B0E0BCBA46B146C2
:104EE000A846F0BD50460DF06BFFF4E701277F4266
:104EF000F1E7C046581E00203C280020442800202E
:104F00000A4A1368002B05D10CE01A00DB680C324A
:104F1000002B07D09842F8D1002902D1C368136052
:104F2000C16070470029FCD01060FAE73C280020DF
:104F3000F0B54746CE46D02380B51B061F682D4BE3
:104F4000A3B004000D00180001A998460DF088FFD9
:104F5000061E07D1019B7FB29F4203D040460DF051
:104F6000C7FF01368422002101A8FFF79BFD2B001B
:104F70002200214801A9FEF7F7FD019B0700002B45
:104F800014D11E4B1C68002C06D06368002B0BD07C
:104F90009847E468002CF8D1002E25D1380023B0C2
:104FA000C0BCB946B046F0BDE468ECE7134B1D68E1
:104FB0009946002D1CD0124C02E0ED68002D0FD058
:104FC0002B68002BF9D02368002B01D0AB42F4D121
:104FD0002800019A02A9FFF779FDED68002DEFD1B5
:104FE0004B4601951C68CEE740460DF0E9FED5E73B
:104FF0000195D1E7581E0020814B00103C2800206D
:10500000442800200FB400B583B004A901C9019160
:10501000FFF78EFF03B008BC04B0184710B500F0CE
:105020003FF910BD7047C0460022014B1A7070470F
:10503000D02C00204B790020FF2B0BD18B79002B3B
:1050400008D1CB79012B05D1082A03D9024B8A78E4
:1050500009301A707047C046D02C002001207047DC
:1050600070B5002915D115495379107909781B02BB
:1050700003430020994200D070BD5378012B0AD021
:10508000022BF9D1002064220021FDF745FA01200E
:10509000F2E70120F0E79478D27805001202144379
:1050A000D20502D5620A93401D000548FEF78CFD2B
:1050B0007F210300214028009847C046D02C0020C3
:1050C00055420000012303700048704770330110FF
:1050D0004B780A781B0213438A7810B512041A43DE
:1050E000CB781B0613439622D200934200D010BD0A
:1050F0000348FEF769FD0021030008009847C046F9
:105100005542000070B5184C82B006000D0020001A
:1051100001A90DF0A5FE002808D1D0231B06019A95
:105120001B689A421CD020000DF0E2FE002001F026
:10513000B9FD002807D103256D4220000DF040FE87
:10514000280002B070BD002001F0C4FD0028F2D09C
:105150002A003100002001F0C9FD051EEBD0ECE76C
:1051600003256D42ECE7C0469C2C0020F0B5DE46DE
:105170004E465746C0B5344B82B081460D001800EC
:1051800001A99B460DF06CFE002808D1D0231B0618
:10519000019A1B689A4250D058460DF0A9FE002093
:1051A00001F080FD002840D00024002D42DD274B77
:1051B0009A4612E04B460020191901F00BFE06003A
:1051C00000F0E4FD002001F0C9FDFCF71BFC534694
:1051D00018605960A419AC422CDA002001F014FECA
:1051E0002E1B0200B04200DD3200002AE2D100F0A6
:1051F000CDFD002001F0B2FD002001F053FD00289C
:1052000018D0002001F000FE0028E4D1FCF7FAFBE2
:10521000002753460E4E1A685B6892197B419942EB
:1052200008D8D8D19042D6D904E000200021074BFD
:105230001860596058460DF0C3FD02B0E0BCBB4693
:10524000B246A946F0BDC0469C2C0020881F002015
:1052500020A1070010B5044B1878FBF7C7FCFA2013
:105260000021800010BDC046D12C002010B5024B9B
:105270001878FBF7BBFC10BDD12C002010B5074CF3
:10528000002120000DF0ECFD002800D110BD00F041
:105290007DFD20000DF094FDF8E7C0469C2C002019
:1052A000F0B5244B85B01B7801F096FF2248FCF73F
:1052B00099FE0120FBF720FFFF23204C204920709E
:1052C0001840FBF7B9FC20780121FBF77DFC052095
:1052D000FBF794FC041E0CD0002205201949FBF7B3
:1052E000D5FC01211848FFF70BFE0124200005B072
:1052F000F0BDFCF779F90500FCF784FBFA22060003
:105300000F000023920092197B4199420ED80BD0D6
:1053100001210291002101910C4928000091FCF724
:1053200067F90028E2D0DCE79042F1D9012252422D
:10533000D317EDE7145701109C2C0020D12C00202E
:105340007D5200106D520010D015002055520010F3
:10535000004870472834011000487047D4330110CA
:1053600070B5040017480378002B21D0002C06D11B
:10537000154B16484380063BFF3B038070BD052C50
:105380001DD8134B1148A400E558811C002304E0EC
:1053900001330A800231132B0ED0EA5CDCB2002A02
:1053A000F6D1C0230134E4B264009B002343E4E758
:1053B000112102F0A5F9D9E7CA239B00DDE70020FF
:1053C000DCE7C046B42C00200904000014280020AB
:1053D0003C340110F0B5982357464546DE464E460C
:1053E000664AE0B5D75880253C006D02883B9A4656
:1053F00085B02C402F420FD001222321604B00208A
:105400005A54DA705F4901F019FA80225E4B920219
:105410001A655E4B2C009A46FB0617D480235B016D
:105420001F4247D18023DB011F4200D07CE0802354
:105430001B021F4200D085E0BC4200D099E005B0BD
:10544000F0BCBB46B246A946A046F0BD4B4B9B6D97
:105450009846002B29D04C4B00249B4601239946AB
:10546000474B012603934346B8461F0004E001342E
:105470007600E4B2202C17D03742F8D05B469E6508
:105480004B466508A3436D00ED18039B6D019C46D8
:105490006544280000F00AFB00285ED10134B743C0
:1054A000E4B27600002FE5D1474680235B015446E5
:1054B0001F42B7D01C430023304A00211360314AF9
:1054C00033489360D360136153619361D361136276
:1054D00053629362D362136353639363D36313641E
:1054E00053649364D364136553659365D3651366FE
:1054F00053669366D366136753679367D367F02247
:105500009200FFF7CFFA234B234A00211A600020B4
:10551000012201F069F980221B4B12031A658023D6
:10552000DB011F4200D182E70122042100201C433D
:1055300001F0CAF81022144B1A6580231B021F4287
:1055400000D179E70122052100201C4301F0BCF8BD
:1055500080220D4B12011A656EE74B46AA8AA97884
:1055600000200093002301F091F9280000F0DCF9FD
:1055700094E7210009487940FCF7F6FD000011503E
:105580004C28002000001050003011501000010085
:105590008C280020582C0020800110505434011019
:1055A00010B501210520FBF70FFB10BD10B500223F
:1055B0000021024800F0E0F910BDC0466C28002030
:1055C0008022024B5202DA647047C046002011501C
:1055D000F0B5C64600B5060000F080F90C232E4D4C
:1055E0000520AB672D49FBF727FB402398462C4C41
:1055F000402200212000FFF755FA43460127A383EC
:1056000021210023274A6770A260136063545F3131
:1056100061844146A18702396354234A2349636068
:10562000E260A1620B60E262214A63622000936043
:10563000D360136153619361D361136253629362C8
:10564000D362136353639363D363136453649364A8
:10565000D364136553659365D36513665366936688
:10566000D366136753679367D367F02200219200D4
:105670004030FFF717FA0F4B0F4A30001A608023B3
:105680009B052F64EB6490230C4AEA50FFF798FFC8
:1056900080BCB846F0BDC04600001150D553001084
:1056A0004C28002084001050000110508000105041
:1056B00000001050582C00208001105010D0010024
:1056C0000B785B0602D14B78052B00D070478A78A7
:1056D000014B1A60FAE7C04600001150F0B5CE4603
:1056E0004746072380B548798E780A790340C87801
:1056F0007F21800731401B02F40913434F00820FC2
:10570000944691462A4D3A195201AA1896700126DC
:1057100066405670604600269383D6709077CA0024
:10572000012C29D023488446880162448446AC4435
:10573000604682601660002929D01F4AC900904641
:10574000414441603F223F3393434A46022A00D1FD
:105750005B001A493F190A687F01D3180B60184B88
:10576000ED195340EA604A469006184380236A6860
:105770001B060343136010E012488446880162440C
:105780008446AC4460468262166000290AD1002338
:1057900064012C1963600C4BE3600120C0BCB94666
:1057A000B046F0BD064AC900904641444162C9E78F
:1057B0004C2800208400105004001050582C002069
:1057C0000000105080001050000110500022154BB6
:1057D00010B59A60DA601A615A619A61DA611A62E8
:1057E0005A629A62DA621A635A639A63DA631A64D3
:1057F0005A649A64DA641A655A659A65DA651A66B3
:105800005A669A66DA661A675A679A67DA67F032F2
:10581000920000210448FFF745F9044B044A1A603E
:1058200010BDC046000010508C280020582C0020CD
:105830008001105010B57F200C0020404000E4098A
:10584000110000191A00034B4001C01800F094F831
:10585000012010BD4C2800207F23180010B50840FF
:105860000B420BD0C90980224000074B4018400171
:105870000021C018120100F05DF810BD0223034A98
:10588000C9095B1A9366EEE74C28002000201150EE
:105890007F22130010B50B400A4200D110BDC90988
:1058A0005B005B1804485B01C01800230022034919
:1058B000C37000F03FF8F1E74C280020FFF7FFFF2E
:1058C0007F21C209034B9200014010B5D258024813
:1058D000FCF74AFCE41500206834011080220D4BCF
:1058E000520410B51A600C4B0C491A6010008B68FA
:1058F0009843FBD10A4C9C2200212000FFF7D2F8EC
:105900008022002152010748FFF7CCF80923636782
:1059100010BDC04600E0004000F0004000C0004064
:105920000000115000001050002303744382838252
:105930008361704710B58368002901D01C6821403D
:10594000002A11D08024E400114322420CD01A68AE
:1059500022420BD1074A0A401A60FFE7FFE7FFE740
:10596000FFE7FFE7FFE78368196010BD8078FFF766
:10597000A7FFC046FFFBFFFFF0B5C646002300B5FA
:10598000838201330374436804001F68838B816141
:105990001E1C934200D9161C8020B6B2921B93B2F3
:1059A000E278C000304315008446681E8541604699
:1059B0006D03054301204240E27062786382002A51
:1059C0004FD0002B1DD1A023DB011D43334B1B6C9B
:1059D0008023334A9B053A40134362681360A268F0
:1059E00013685B0557D42F4B2B401360FFE7FFE78D
:1059F000FFE7FFE7FFE7FFE7A3681D6080BCB8464D
:105A0000F0BD802252011543244A126C920702D441
:105A1000A278D209DCD0A28B111C9A4200D9191CA1
:105A20008AB28021C90011439B1A9046E2789BB24A
:105A30001600701E864176030E4301214A40E27033
:105A400062786382002A18D0002B02D18023DB0108
:105A50001E43A023144A36043A40DB053543134362
:105A6000BBE73200E068FFF723F8A3699B19A36145
:105A700080231B021D43638AA3E7E0684246A169B5
:105A80004030FFF715F8A3694344A36180231B024C
:105A90001E43638AD8E7A078FFF712FF0000115079
:105AA000FFFFFFAFFFFBFFFFFFFFFFDFF0B5C646C5
:105AB00000B5067C0400002E00D1CFE083681A6890
:105AC0001D684378AD05AD0D002B51D1838AEB18CD
:105AD0009BB28382A18B8D4207D2002363826368CD
